{
  "contractName": "Consumer",
  "abi": [
    {
      "inputs": [
        {
          "internalType": "address",
          "name": "_pli",
          "type": "address"
        }
      ],
      "stateMutability": "nonpayable",
      "type": "constructor"
    },
    {
      "anonymous": false,
      "inputs": [
        {
          "indexed": true,
          "internalType": "bytes32",
          "name": "id",
          "type": "bytes32"
        }
      ],
      "name": "PluginCancelled",
      "type": "event"
    },
    {
      "anonymous": false,
      "inputs": [
        {
          "indexed": true,
          "internalType": "bytes32",
          "name": "id",
          "type": "bytes32"
        }
      ],
      "name": "PluginFulfilled",
      "type": "event"
    },
    {
      "anonymous": false,
      "inputs": [
        {
          "indexed": true,
          "internalType": "bytes32",
          "name": "id",
          "type": "bytes32"
        }
      ],
      "name": "PluginRequested",
      "type": "event"
    },
    {
      "anonymous": false,
      "inputs": [
        {
          "indexed": true,
          "internalType": "bytes32",
          "name": "requestId",
          "type": "bytes32"
        },
        {
          "indexed": true,
          "internalType": "uint256",
          "name": "currentVal",
          "type": "uint256"
        }
      ],
      "name": "RequestFulfilled",
      "type": "event"
    },
    {
      "anonymous": false,
      "inputs": [
        {
          "indexed": true,
          "internalType": "address",
          "name": "requester",
          "type": "address"
        },
        {
          "indexed": true,
          "internalType": "bytes32",
          "name": "jobId",
          "type": "bytes32"
        },
        {
          "indexed": true,
          "internalType": "bytes32",
          "name": "requestId",
          "type": "bytes32"
        }
      ],
      "name": "requestCreated",
      "type": "event"
    },
    {
      "inputs": [],
      "name": "currentValue",
      "outputs": [
        {
          "internalType": "uint256",
          "name": "",
          "type": "uint256"
        }
      ],
      "stateMutability": "view",
      "type": "function"
    },
    {
      "inputs": [
        {
          "internalType": "address",
          "name": "_oracle",
          "type": "address"
        },
        {
          "internalType": "string",
          "name": "_jobId",
          "type": "string"
        },
        {
          "internalType": "string",
          "name": "_fsysm",
          "type": "string"
        },
        {
          "internalType": "string",
          "name": "_tsysm",
          "type": "string"
        }
      ],
      "name": "requestData",
      "outputs": [
        {
          "internalType": "bytes32",
          "name": "requestId",
          "type": "bytes32"
        }
      ],
      "stateMutability": "nonpayable",
      "type": "function"
    },
    {
      "inputs": [
        {
          "internalType": "bytes32",
          "name": "_requestId",
          "type": "bytes32"
        },
        {
          "internalType": "uint256",
          "name": "_currentval",
          "type": "uint256"
        }
      ],
      "name": "fulfill",
      "outputs": [],
      "stateMutability": "nonpayable",
      "type": "function"
    },
    {
      "inputs": [],
      "name": "getPluginToken",
      "outputs": [
        {
          "internalType": "address",
          "name": "",
          "type": "address"
        }
      ],
      "stateMutability": "view",
      "type": "function"
    },
    {
      "inputs": [],
      "name": "withdrawPli",
      "outputs": [],
      "stateMutability": "nonpayable",
      "type": "function"
    },
    {
      "inputs": [
        {
          "internalType": "bytes32",
          "name": "_requestId",
          "type": "bytes32"
        },
        {
          "internalType": "uint256",
          "name": "_payment",
          "type": "uint256"
        },
        {
          "internalType": "bytes4",
          "name": "_callbackFunctionId",
          "type": "bytes4"
        },
        {
          "internalType": "uint256",
          "name": "_expiration",
          "type": "uint256"
        }
      ],
      "name": "cancelRequest",
      "outputs": [],
      "stateMutability": "nonpayable",
      "type": "function"
    }
  ],
  "bytecode": "0x6080604052600160045534801561001557600080fd5b506040516117083803806117088339818101604052602081101561003857600080fd5b81019080805190602001909291905050506100588161005e60201b60201c565b506100a2565b80600260006101000a81548173ffffffffffffffffffffffffffffffffffffffff021916908373ffffffffffffffffffffffffffffffffffffffff16021790555050565b611657806100b16000396000f3fe608060405234801561001057600080fd5b50600436106100625760003560e01c806337fccd30146100675780634357855e14610071578063698996f8146100a957806387b7142b146100c7578063a4b6f67e146102e4578063ec65d0f81461032e575b600080fd5b61006f610399565b005b6100a76004803603604081101561008757600080fd5b810190808035906020019092919080359060200190929190505050610593565b005b6100b16106e8565b6040518082815260200191505060405180910390f35b6102ce600480360360808110156100dd57600080fd5b81019080803573ffffffffffffffffffffffffffffffffffffffff1690602001909291908035906020019064010000000081111561011a57600080fd5b82018360208201111561012c57600080fd5b8035906020019184600183028401116401000000008311171561014e57600080fd5b91908080601f016020809104026020016040519081016040528093929190818152602001838380828437600081840152601f19601f820116905080830192505050505050509192919290803590602001906401000000008111156101b157600080fd5b8201836020820111156101c357600080fd5b803590602001918460018302840111640100000000831117156101e557600080fd5b91908080601f016020809104026020016040519081016040528093929190818152602001838380828437600081840152601f19601f8201169050808301925050505050505091929192908035906020019064010000000081111561024857600080fd5b82018360208201111561025a57600080fd5b8035906020019184600183028401116401000000008311171561027c57600080fd5b91908080601f016020809104026020016040519081016040528093929190818152602001838380828437600081840152601f19601f8201169050808301925050505050505091929192905050506106ee565b6040518082815260200191505060405180910390f35b6102ec61085e565b604051808273ffffffffffffffffffffffffffffffffffffffff1673ffffffffffffffffffffffffffffffffffffffff16815260200191505060405180910390f35b6103976004803603608081101561034457600080fd5b81019080803590602001909291908035906020019092919080357bffffffffffffffffffffffffffffffffffffffffffffffffffffffff191690602001909291908035906020019092919050505061086d565b005b60006103a361087f565b90508073ffffffffffffffffffffffffffffffffffffffff1663a9059cbb338373ffffffffffffffffffffffffffffffffffffffff166370a08231306040518263ffffffff1660e01b8152600401808273ffffffffffffffffffffffffffffffffffffffff1673ffffffffffffffffffffffffffffffffffffffff16815260200191505060206040518083038186803b15801561043f57600080fd5b505afa158015610453573d6000803e3d6000fd5b505050506040513d602081101561046957600080fd5b81019080805190602001909291905050506040518363ffffffff1660e01b8152600401808373ffffffffffffffffffffffffffffffffffffffff1673ffffffffffffffffffffffffffffffffffffffff16815260200182815260200192505050602060405180830381600087803b1580156104e357600080fd5b505af11580156104f7573d6000803e3d6000fd5b505050506040513d602081101561050d57600080fd5b8101908080519060200190929190505050610590576040517f08c379a00000000000000000000000000000000000000000000000000000000081526004018080602001828103825260128152602001807f556e61626c6520746f207472616e73666572000000000000000000000000000081525060200191505060405180910390fd5b50565b816005600082815260200190815260200160002060009054906101000a900473ffffffffffffffffffffffffffffffffffffffff1673ffffffffffffffffffffffffffffffffffffffff163373ffffffffffffffffffffffffffffffffffffffff161461064b576040517f08c379a00000000000000000000000000000000000000000000000000000000081526004018080602001828103825260288152602001806115fa6028913960400191505060405180910390fd5b6005600082815260200190815260200160002060006101000a81549073ffffffffffffffffffffffffffffffffffffffff0219169055807fa40ad10b942505047c532a7399bf5eac2768b11b7155b40ec80309aea567f99860405160405180910390a281837f1ca8663227a7fe9919713a01d344afbb434e234f35a3e540a6ad924f88771f3860405160405180910390a381600681905550505050565b60065481565b60006106f861154f565b610712610704866108a9565b30634357855e60e01b6108d4565b905061075e6040518060400160405280600581526020017f6673796d7300000000000000000000000000000000000000000000000000000081525085836109059092919063ffffffff16565b6107a86040518060400160405280600581526020017f7473796d7300000000000000000000000000000000000000000000000000000081525084836109059092919063ffffffff16565b6107f36040518060400160405280600581526020017f74696d65730000000000000000000000000000000000000000000000000000008152506064836109389092919063ffffffff16565b610806868267016345785d8a000061096b565b915081610812866108a9565b3373ffffffffffffffffffffffffffffffffffffffff167f7f3df4038a13e7b83557e5a0ebf67fec07391a522319ab42e81255e88de18ffb60405160405180910390a450949350505050565b600061086861087f565b905090565b61087984848484610c23565b50505050565b6000600260009054906101000a900473ffffffffffffffffffffffffffffffffffffffff16905090565b600060608290506000815114156108c6576000801b9150506108cf565b60208301519150505b919050565b6108dc61154f565b6108e461154f565b6108fb85858584610d86909392919063ffffffff16565b9150509392505050565b61091c828460800151610e3690919063ffffffff16565b610933818460800151610e3690919063ffffffff16565b505050565b61094f828460800151610e3690919063ffffffff16565b610966818460800151610e5b90919063ffffffff16565b505050565b600030600454604051602001808373ffffffffffffffffffffffffffffffffffffffff1673ffffffffffffffffffffffffffffffffffffffff1660601b815260140182815260200192505050604051602081830303815290604052805190602001209050600454836060018181525050836005600083815260200190815260200160002060006101000a81548173ffffffffffffffffffffffffffffffffffffffff021916908373ffffffffffffffffffffffffffffffffffffffff160217905550807fa6745906207afb96a5801b8e5711fd7b74c5780ce893a973806e179d675bbe2460405160405180910390a2600260009054906101000a900473ffffffffffffffffffffffffffffffffffffffff1673ffffffffffffffffffffffffffffffffffffffff16634000aea08584610aa387610eff565b6040518463ffffffff1660e01b8152600401808473ffffffffffffffffffffffffffffffffffffffff1673ffffffffffffffffffffffffffffffffffffffff16815260200183815260200180602001828103825283818151815260200191508051906020019080838360005b83811015610b2a578082015181840152602081019050610b0f565b50505050905090810190601f168015610b575780820380516001836020036101000a031916815260200191505b50945050505050602060405180830381600087803b158015610b7857600080fd5b505af1158015610b8c573d6000803e3d6000fd5b505050506040513d6020811015610ba257600080fd5b8101908080519060200190929190505050610c08576040517f08c379a00000000000000000000000000000000000000000000000000000000081526004018080602001828103825260238152602001806115d76023913960400191505060405180910390fd5b60016004600082825401925050819055508090509392505050565b60006005600086815260200190815260200160002060009054906101000a900473ffffffffffffffffffffffffffffffffffffffff1690506005600086815260200190815260200160002060006101000a81549073ffffffffffffffffffffffffffffffffffffffff0219169055847f715822738dad692e521ebc0193d189bf23153eb1d4420173d6b30cd8add9f9a660405160405180910390a28073ffffffffffffffffffffffffffffffffffffffff16636ee4d553868686866040518563ffffffff1660e01b815260040180858152602001848152602001837bffffffffffffffffffffffffffffffffffffffffffffffffffffffff19167bffffffffffffffffffffffffffffffffffffffffffffffffffffffff19168152602001828152602001945050505050600060405180830381600087803b158015610d6757600080fd5b505af1158015610d7b573d6000803e3d6000fd5b505050505050505050565b610d8e61154f565b610d9e85608001516101006110cb565b508385600001818152505082856020019073ffffffffffffffffffffffffffffffffffffffff16908173ffffffffffffffffffffffffffffffffffffffff16815250508185604001907bffffffffffffffffffffffffffffffffffffffffffffffffffffffff191690817bffffffffffffffffffffffffffffffffffffffffffffffffffffffff191681525050849050949350505050565b610e43826003835161111f565b610e56818361126490919063ffffffff16565b505050565b7fffffffffffffffffffffffffffffffffffffffffffffffff0000000000000000811215610e9257610e8d8282611286565b610efb565b67ffffffffffffffff811315610eb157610eac82826112f4565b610efa565b60008112610eca57610ec58260008361111f565b610ef9565b610ef8826001837fffffffffffffffffffffffffffffffffffffffffffffffffffffffffffffffff0361111f565b5b5b5b5050565b6060634042994660e01b60008084600001518560200151866040015187606001516001896080015160000151604051602401808973ffffffffffffffffffffffffffffffffffffffff1673ffffffffffffffffffffffffffffffffffffffff1681526020018881526020018781526020018673ffffffffffffffffffffffffffffffffffffffff1673ffffffffffffffffffffffffffffffffffffffff168152602001857bffffffffffffffffffffffffffffffffffffffffffffffffffffffff19167bffffffffffffffffffffffffffffffffffffffffffffffffffffffff1916815260200184815260200183815260200180602001828103825283818151815260200191508051906020019080838360005b8381101561102e578082015181840152602081019050611013565b50505050905090810190601f16801561105b5780820380516001836020036101000a031916815260200191505b509950505050505050505050604051602081830303815290604052907bffffffffffffffffffffffffffffffffffffffffffffffffffffffff19166020820180517bffffffffffffffffffffffffffffffffffffffffffffffffffffffff83818316178352505050509050919050565b6110d36115bc565b6000602083816110df57fe5b06146110f857602082816110ef57fe5b06602003820191505b81836020018181525050604051808452600081528281016020016040525082905092915050565b6017811161114c576111468160058460ff16901b60ff16178461134090919063ffffffff16565b5061125f565b60ff811161118e57611171601860058460ff16901b178461134090919063ffffffff16565b50611188816001856113609092919063ffffffff16565b5061125e565b61ffff81116111d1576111b4601960058460ff16901b178461134090919063ffffffff16565b506111cb816002856113609092919063ffffffff16565b5061125d565b63ffffffff8111611216576111f9601a60058460ff16901b178461134090919063ffffffff16565b50611210816004856113609092919063ffffffff16565b5061125c565b67ffffffffffffffff811161125b57611242601b60058460ff16901b178461134090919063ffffffff16565b50611259816008856113609092919063ffffffff16565b505b5b5b5b5b505050565b61126c6115bc565b61127e83846000015151848551611382565b905092915050565b6112a460036005600660ff16901b178361134090919063ffffffff16565b506112f082827fffffffffffffffffffffffffffffffffffffffffffffffffffffffffffffffff036040516020018082815260200191505060405160208183030381529060405261143b565b5050565b61131260026005600660ff16901b178361134090919063ffffffff16565b5061133c82826040516020018082815260200191505060405160208183030381529060405261143b565b5050565b6113486115bc565b6113588384600001515184611460565b905092915050565b6113686115bc565b6113798485600001515185856114ae565b90509392505050565b61138a6115bc565b825182111561139857600080fd5b846020015182850111156113c3576113c28560026113bc886020015188870161150f565b0261152b565b5b6000808651805187602083010193508088870111156113e25787860182525b60208701925050505b6020841061140e57805182526020820191506020810190506020840393506113eb565b60006001856020036101000a03905080198251168184511681811785525050879350505050949350505050565b611448826002835161111f565b61145b818361126490919063ffffffff16565b505050565b6114686115bc565b836020015183106114855761148484600286602001510261152b565b5b83518051602085830101848153818614156114a1576001820183525b5050508390509392505050565b6114b66115bc565b846020015184830111156114d4576114d38560028685010261152b565b5b60006001836101000a03905085518386820101858319825116178152815185880111156115015784870182525b505085915050949350505050565b60008183111561152157829050611525565b8190505b92915050565b60608260000151905061153e83836110cb565b506115498382611264565b50505050565b6040518060a0016040528060008019168152602001600073ffffffffffffffffffffffffffffffffffffffff16815260200160007bffffffffffffffffffffffffffffffffffffffffffffffffffffffff19168152602001600081526020016115b66115bc565b81525090565b60405180604001604052806060815260200160008152509056fe756e61626c6520746f207472616e73666572416e6443616c6c20746f206f7261636c65536f75726365206d75737420626520746865206f7261636c65206f66207468652072657175657374a2646970667358221220737c4825ba1ac90ee7a7be22ff6b97513de81e6913586b5af4073ed4af1b2d0a64736f6c63430006060033",
  "immutableReferences": {},
  "source": "// SPDX-License-Identifier: MIT\npragma solidity ^0.6.6;\n\nimport \"@goplugin/contracts/src/v0.6/PluginClient.sol\";\n\ncontract Consumer is PluginClient {\n  // using Plugin for Plugin.Request;\n  //Initialize Oracle Payment     \n  uint256 constant private ORACLE_PAYMENT = 0.1 * 10**18;\n  uint256 public currentValue;\n\n  //Initialize event RequestFulfilled   \n  event RequestFulfilled(\n    bytes32 indexed requestId,\n    uint256 indexed currentVal\n  );\n\n  //Initialize event requestCreated   \n  event requestCreated(address indexed requester,bytes32 indexed jobId, bytes32 indexed requestId);\n\n  //Constructor to pass Pli Token Address during deployment\n  constructor(address _pli) public {\n    setPluginToken(_pli);\n  }\n\n  //_fsysm should be the name of your source token from which you want the comparison \n  //_tsysm should be the name of your destinaiton token to which you need the comparison\n  //_jobID should be tagged in Oracle\n  //_oracle should be fulfiled with your plugin node address\n\n  function requestData(address _oracle, string memory _jobId,string memory _fsysm,string memory _tsysm)\n    public\n    returns (bytes32 requestId)\n  {\n    Plugin.Request memory req = buildPluginRequest(stringToBytes32(_jobId), address(this), this.fulfill.selector);\n    req.add(\"fsyms\",_fsysm);\n    req.add(\"tsyms\",_tsysm);\n    req.addInt(\"times\", 100);\n    requestId = sendPluginRequestTo(_oracle, req, ORACLE_PAYMENT);\n    emit requestCreated(msg.sender, stringToBytes32(_jobId), requestId);\n  }\n\n  //callBack function\n  function fulfill(bytes32 _requestId, uint256 _currentval)\n    public\n    recordPluginFulfillment(_requestId)\n  {\n    emit RequestFulfilled(_requestId, _currentval);\n    currentValue = _currentval;\n  }\n\n  function getPluginToken() public view returns (address) {\n    return pluginTokenAddress();\n  }\n\n  //With draw pli can be invoked only by owner\n  function withdrawPli() public {\n    PliTokenInterface pli = PliTokenInterface(pluginTokenAddress());\n    require(pli.transfer(msg.sender, pli.balanceOf(address(this))), \"Unable to transfer\");\n  }\n\n  //Cancel the existing request\n  function cancelRequest(\n    bytes32 _requestId,\n    uint256 _payment,\n    bytes4 _callbackFunctionId,\n    uint256 _expiration\n  )\n    public\n  {\n    cancelPluginRequest(_requestId, _payment, _callbackFunctionId, _expiration);\n  }\n\n  //String to bytes to convert jobid to bytest32\n  function stringToBytes32(string memory source) private pure returns (bytes32 result) {\n    bytes memory tempEmptyStringTest = bytes(source);\n    if (tempEmptyStringTest.length == 0) {\n      return 0x0;\n    }\n    assembly { \n      result := mload(add(source, 32))\n    }\n  }\n\n}\n\n",
  "sourcePath": "/Users/lokesh/projects/blockchain/kgsample/plugin-truffle-box/contracts/Consumer.sol",
  "compiler": {
    "name": "solc",
    "version": "0.6.6+commit.6c089d02.Emscripten.clang"
  },
  "schemaVersion": "3.4.10",
  "updatedAt": "2022-09-17T17:31:48.641Z",
  "devdoc": {
    "methods": {}
  },
  "userdoc": {
    "methods": {}
  }
}