{
  "contractName": "KGSample",
  "abi": [
    {
      "inputs": [],
      "stateMutability": "nonpayable",
      "type": "constructor"
    },
    {
      "anonymous": false,
      "inputs": [
        {
          "indexed": false,
          "internalType": "string",
          "name": "bookName",
          "type": "string"
        },
        {
          "indexed": false,
          "internalType": "address",
          "name": "addedBy",
          "type": "address"
        }
      ],
      "name": "BookAdded",
      "type": "event"
    },
    {
      "inputs": [],
      "name": "bookid",
      "outputs": [
        {
          "internalType": "uint256",
          "name": "",
          "type": "uint256"
        }
      ],
      "stateMutability": "view",
      "type": "function"
    },
    {
      "inputs": [
        {
          "internalType": "uint256",
          "name": "",
          "type": "uint256"
        }
      ],
      "name": "books",
      "outputs": [
        {
          "internalType": "uint256",
          "name": "id",
          "type": "uint256"
        },
        {
          "internalType": "address",
          "name": "bookOwnedBy",
          "type": "address"
        },
        {
          "internalType": "string",
          "name": "bookName",
          "type": "string"
        }
      ],
      "stateMutability": "view",
      "type": "function"
    },
    {
      "inputs": [
        {
          "internalType": "string",
          "name": "_bookName",
          "type": "string"
        }
      ],
      "name": "addBooks",
      "outputs": [],
      "stateMutability": "nonpayable",
      "type": "function"
    },
    {
      "inputs": [
        {
          "internalType": "uint256",
          "name": "_bookId",
          "type": "uint256"
        }
      ],
      "name": "viewBook",
      "outputs": [
        {
          "internalType": "uint256",
          "name": "",
          "type": "uint256"
        },
        {
          "internalType": "address",
          "name": "",
          "type": "address"
        },
        {
          "internalType": "string",
          "name": "",
          "type": "string"
        }
      ],
      "stateMutability": "view",
      "type": "function"
    }
  ],
  "bytecode": "0x608060405234801561001057600080fd5b5060016000819055506107d7806100286000396000f3fe608060405234801561001057600080fd5b506004361061004c5760003560e01c80633c9d54de14610051578063687440461461006d57806376dec57c1461009f578063a487cd1a146100bd575b600080fd5b61006b600480360381019061006691906104f7565b6100ef565b005b61008760048036038101906100829190610538565b6101ef565b60405161009693929190610612565b60405180910390f35b6100a76102d1565b6040516100b491906105f7565b60405180910390f35b6100d760048036038101906100d29190610538565b6102d7565b6040516100e693929190610612565b60405180910390f35b604051806060016040528060005481526020013373ffffffffffffffffffffffffffffffffffffffff1681526020018281525060016000805481526020019081526020016000206000820151816000015560208201518160010160006101000a81548173ffffffffffffffffffffffffffffffffffffffff021916908373ffffffffffffffffffffffffffffffffffffffff16021790555060408201518160020190805190602001906101a39291906103e9565b509050506001600054016000819055507f7984f0b1aa1b5583636f2c20e9a44dfc9022c74fc8ea5635255b73be4369ae2381336040516101e49291906105c7565b60405180910390a150565b60016020528060005260406000206000915090508060000154908060010160009054906101000a900473ffffffffffffffffffffffffffffffffffffffff1690806002018054600181600116156101000203166002900480601f0160208091040260200160405190810160405280929190818152602001828054600181600116156101000203166002900480156102c75780601f1061029c576101008083540402835291602001916102c7565b820191906000526020600020905b8154815290600101906020018083116102aa57829003601f168201915b5050505050905083565b60005481565b600080606060016000858152602001908152602001600020600001546001600086815260200190815260200160002060010160009054906101000a900473ffffffffffffffffffffffffffffffffffffffff1660016000878152602001908152602001600020600201808054600181600116156101000203166002900480601f0160208091040260200160405190810160405280929190818152602001828054600181600116156101000203166002900480156103d55780601f106103aa576101008083540402835291602001916103d5565b820191906000526020600020905b8154815290600101906020018083116103b857829003601f168201915b505050505090509250925092509193909250565b828054600181600116156101000203166002900490600052602060002090601f016020900481019282601f1061042a57805160ff1916838001178555610458565b82800160010185558215610458579182015b8281111561045757825182559160200191906001019061043c565b5b5090506104659190610469565b5090565b61048b91905b8082111561048757600081600090555060010161046f565b5090565b90565b600082601f83011261049f57600080fd5b81356104b26104ad8261067d565b610650565b915080825260208301602083018583830111156104ce57600080fd5b6104d9838284610737565b50505092915050565b6000813590506104f18161078a565b92915050565b60006020828403121561050957600080fd5b600082013567ffffffffffffffff81111561052357600080fd5b61052f8482850161048e565b91505092915050565b60006020828403121561054a57600080fd5b6000610558848285016104e2565b91505092915050565b61056a81610701565b82525050565b610579816106c5565b82525050565b600061058a826106a9565b61059481856106b4565b93506105a4818560208601610746565b6105ad81610779565b840191505092915050565b6105c1816106f7565b82525050565b600060408201905081810360008301526105e1818561057f565b90506105f06020830184610561565b9392505050565b600060208201905061060c60008301846105b8565b92915050565b600060608201905061062760008301866105b8565b6106346020830185610570565b8181036040830152610646818461057f565b9050949350505050565b6000604051905081810181811067ffffffffffffffff8211171561067357600080fd5b8060405250919050565b600067ffffffffffffffff82111561069457600080fd5b601f19601f8301169050602081019050919050565b600081519050919050565b600082825260208201905092915050565b60006106d0826106d7565b9050919050565b600073ffffffffffffffffffffffffffffffffffffffff82169050919050565b6000819050919050565b600061070c82610713565b9050919050565b600061071e82610725565b9050919050565b6000610730826106d7565b9050919050565b82818337600083830152505050565b60005b83811015610764578082015181840152602081019050610749565b83811115610773576000848401525b50505050565b6000601f19601f8301169050919050565b610793816106f7565b811461079e57600080fd5b5056fea26469706673582212207203e1823e42af3e8c9beb9a86dde883cdff8280a1c90a27fa353d147813933064736f6c63430006060033",
  "immutableReferences": {},
  "source": "// SPDX-License-Identifier: MIT\npragma solidity ^0.6.6;\npragma experimental ABIEncoderV2;\n\ncontract KGSample {\n    uint256 public bookid;\n    struct Book{\n        uint256 id;\n        address bookOwnedBy;\n        string bookName;\n    }\n    mapping(uint256 => Book) public books;\n    event BookAdded(\n        string bookName,\n        address addedBy\n    );\n\n    constructor() public {\n        bookid = 1;\n    }\n    function addBooks(string memory _bookName) public{\n        books[bookid] = Book(\n            bookid,\n            msg.sender,\n            _bookName\n        );\n        bookid = bookid + 1;\n        emit BookAdded(_bookName,msg.sender);\n    }\n    function viewBook(uint256 _bookId) public view returns(uint256,address,string memory){\n        return (books[_bookId].id,books[_bookId].bookOwnedBy,books[_bookId].bookName);\n    }\n\n}",
  "sourcePath": "/Users/lokesh/projects/blockchain/kgsample/plugin-truffle-box/contracts/KGSample.sol",
  "compiler": {
    "name": "solc",
    "version": "0.6.6+commit.6c089d02.Emscripten.clang"
  },
  "schemaVersion": "3.4.10",
  "updatedAt": "2022-09-17T17:31:48.654Z",
  "devdoc": {
    "methods": {}
  },
  "userdoc": {
    "methods": {}
  }
}